{
  "_format": "hh-sol-artifact-1",
  "contractName": "MyERC20",
  "sourceName": "contracts/MyERC20.sol",
  "abi": [
    {
      "inputs": [],
      "stateMutability": "nonpayable",
      "type": "constructor"
    },
    {
      "anonymous": false,
      "inputs": [
        {
          "indexed": true,
          "internalType": "address",
          "name": "tokenOwner",
          "type": "address"
        },
        {
          "indexed": true,
          "internalType": "address",
          "name": "spender",
          "type": "address"
        },
        {
          "indexed": false,
          "internalType": "uint256",
          "name": "tokens",
          "type": "uint256"
        }
      ],
      "name": "Approval",
      "type": "event"
    },
    {
      "anonymous": false,
      "inputs": [
        {
          "indexed": true,
          "internalType": "address",
          "name": "from",
          "type": "address"
        },
        {
          "indexed": true,
          "internalType": "address",
          "name": "to",
          "type": "address"
        },
        {
          "indexed": false,
          "internalType": "uint256",
          "name": "tokens",
          "type": "uint256"
        }
      ],
      "name": "Transfer",
      "type": "event"
    },
    {
      "inputs": [],
      "name": "POINTS_PER_ETH",
      "outputs": [
        {
          "internalType": "uint256",
          "name": "",
          "type": "uint256"
        }
      ],
      "stateMutability": "view",
      "type": "function"
    },
    {
      "inputs": [],
      "name": "WEI_PER_ETH",
      "outputs": [
        {
          "internalType": "uint256",
          "name": "",
          "type": "uint256"
        }
      ],
      "stateMutability": "view",
      "type": "function"
    },
    {
      "inputs": [
        {
          "internalType": "address",
          "name": "tokenOwner",
          "type": "address"
        },
        {
          "internalType": "address",
          "name": "spender",
          "type": "address"
        }
      ],
      "name": "allowance",
      "outputs": [
        {
          "internalType": "uint256",
          "name": "",
          "type": "uint256"
        }
      ],
      "stateMutability": "view",
      "type": "function"
    },
    {
      "inputs": [
        {
          "internalType": "address",
          "name": "spender",
          "type": "address"
        },
        {
          "internalType": "uint256",
          "name": "tokens",
          "type": "uint256"
        }
      ],
      "name": "approve",
      "outputs": [
        {
          "internalType": "bool",
          "name": "",
          "type": "bool"
        }
      ],
      "stateMutability": "nonpayable",
      "type": "function"
    },
    {
      "inputs": [
        {
          "internalType": "address",
          "name": "tokenOwner",
          "type": "address"
        }
      ],
      "name": "balanceOf",
      "outputs": [
        {
          "internalType": "uint256",
          "name": "",
          "type": "uint256"
        }
      ],
      "stateMutability": "view",
      "type": "function"
    },
    {
      "inputs": [
        {
          "internalType": "address",
          "name": "",
          "type": "address"
        }
      ],
      "name": "balances",
      "outputs": [
        {
          "internalType": "uint256",
          "name": "",
          "type": "uint256"
        }
      ],
      "stateMutability": "view",
      "type": "function"
    },
    {
      "inputs": [],
      "name": "baseUnit",
      "outputs": [
        {
          "internalType": "uint256",
          "name": "",
          "type": "uint256"
        }
      ],
      "stateMutability": "view",
      "type": "function"
    },
    {
      "inputs": [
        {
          "internalType": "address",
          "name": "account",
          "type": "address"
        },
        {
          "internalType": "uint256",
          "name": "amount",
          "type": "uint256"
        }
      ],
      "name": "burn",
      "outputs": [],
      "stateMutability": "nonpayable",
      "type": "function"
    },
    {
      "inputs": [],
      "name": "contractOwner",
      "outputs": [
        {
          "internalType": "address",
          "name": "",
          "type": "address"
        }
      ],
      "stateMutability": "view",
      "type": "function"
    },
    {
      "inputs": [],
      "name": "decimals",
      "outputs": [
        {
          "internalType": "uint8",
          "name": "",
          "type": "uint8"
        }
      ],
      "stateMutability": "view",
      "type": "function"
    },
    {
      "inputs": [],
      "name": "deposit",
      "outputs": [],
      "stateMutability": "payable",
      "type": "function"
    },
    {
      "inputs": [
        {
          "internalType": "address",
          "name": "account",
          "type": "address"
        },
        {
          "internalType": "uint256",
          "name": "amount",
          "type": "uint256"
        }
      ],
      "name": "mint",
      "outputs": [],
      "stateMutability": "nonpayable",
      "type": "function"
    },
    {
      "inputs": [],
      "name": "name",
      "outputs": [
        {
          "internalType": "string",
          "name": "",
          "type": "string"
        }
      ],
      "stateMutability": "view",
      "type": "function"
    },
    {
      "inputs": [
        {
          "internalType": "address",
          "name": "",
          "type": "address"
        },
        {
          "internalType": "address",
          "name": "",
          "type": "address"
        }
      ],
      "name": "spendLimit",
      "outputs": [
        {
          "internalType": "uint256",
          "name": "",
          "type": "uint256"
        }
      ],
      "stateMutability": "view",
      "type": "function"
    },
    {
      "inputs": [],
      "name": "symbol",
      "outputs": [
        {
          "internalType": "string",
          "name": "",
          "type": "string"
        }
      ],
      "stateMutability": "view",
      "type": "function"
    },
    {
      "inputs": [],
      "name": "totalSupply",
      "outputs": [
        {
          "internalType": "uint256",
          "name": "",
          "type": "uint256"
        }
      ],
      "stateMutability": "view",
      "type": "function"
    },
    {
      "inputs": [],
      "name": "totalTokens",
      "outputs": [
        {
          "internalType": "uint256",
          "name": "",
          "type": "uint256"
        }
      ],
      "stateMutability": "view",
      "type": "function"
    },
    {
      "inputs": [
        {
          "internalType": "address",
          "name": "receiver",
          "type": "address"
        },
        {
          "internalType": "uint256",
          "name": "tokens",
          "type": "uint256"
        }
      ],
      "name": "transfer",
      "outputs": [
        {
          "internalType": "bool",
          "name": "",
          "type": "bool"
        }
      ],
      "stateMutability": "nonpayable",
      "type": "function"
    },
    {
      "inputs": [
        {
          "internalType": "address",
          "name": "from",
          "type": "address"
        },
        {
          "internalType": "address",
          "name": "to",
          "type": "address"
        },
        {
          "internalType": "uint256",
          "name": "tokens",
          "type": "uint256"
        }
      ],
      "name": "transferFrom",
      "outputs": [
        {
          "internalType": "bool",
          "name": "",
          "type": "bool"
        }
      ],
      "stateMutability": "nonpayable",
      "type": "function"
    },
    {
      "inputs": [
        {
          "internalType": "uint256",
          "name": "points",
          "type": "uint256"
        }
      ],
      "name": "withdraw",
      "outputs": [],
      "stateMutability": "nonpayable",
      "type": "function"
    }
  ],
  "bytecode": "0x60806040526040518060400160405280601681526020017f41756374696f6e20506f696e7473204d79455243323000000000000000000000815250600490816100489190610376565b506000600560006101000a81548160ff021916908360ff160217905550600560009054906101000a900460ff1660ff16600a61008491906105aa565b6006556040518060400160405280600581526020017f6d79415054000000000000000000000000000000000000000000000000000000815250600790816100cb9190610376565b503480156100d857600080fd5b506000808190555033600160006101000a81548173ffffffffffffffffffffffffffffffffffffffff021916908373ffffffffffffffffffffffffffffffffffffffff1602179055506105f5565b600081519050919050565b7f4e487b7100000000000000000000000000000000000000000000000000000000600052604160045260246000fd5b7f4e487b7100000000000000000000000000000000000000000000000000000000600052602260045260246000fd5b600060028204905060018216806101a757607f821691505b6020821081036101ba576101b9610160565b5b50919050565b60008190508160005260206000209050919050565b60006020601f8301049050919050565b600082821b905092915050565b6000600883026102227fffffffffffffffffffffffffffffffffffffffffffffffffffffffffffffffff826101e5565b61022c86836101e5565b95508019841693508086168417925050509392505050565b6000819050919050565b6000819050919050565b600061027361026e61026984610244565b61024e565b610244565b9050919050565b6000819050919050565b61028d83610258565b6102a16102998261027a565b8484546101f2565b825550505050565b600090565b6102b66102a9565b6102c1818484610284565b505050565b5b818110156102e5576102da6000826102ae565b6001810190506102c7565b5050565b601f82111561032a576102fb816101c0565b610304846101d5565b81016020851015610313578190505b61032761031f856101d5565b8301826102c6565b50505b505050565b600082821c905092915050565b600061034d6000198460080261032f565b1980831691505092915050565b6000610366838361033c565b9150826002028217905092915050565b61037f82610126565b67ffffffffffffffff81111561039857610397610131565b5b6103a2825461018f565b6103ad8282856102e9565b600060209050601f8311600181146103e057600084156103ce578287015190505b6103d8858261035a565b865550610440565b601f1984166103ee866101c0565b60005b82811015610416578489015182556001820191506020850194506020810190506103f1565b86831015610433578489015161042f601f89168261033c565b8355505b6001600288020188555050505b505050505050565b7f4e487b7100000000000000000000000000000000000000000000000000000000600052601160045260246000fd5b60008160011c9050919050565b6000808291508390505b60018511156104ce578086048111156104aa576104a9610448565b5b60018516156104b95780820291505b80810290506104c785610477565b945061048e565b94509492505050565b6000826104e757600190506105a3565b816104f557600090506105a3565b816001811461050b576002811461051557610544565b60019150506105a3565b60ff84111561052757610526610448565b5b8360020a91508482111561053e5761053d610448565b5b506105a3565b5060208310610133831016604e8410600b84101617156105795782820a90508381111561057457610573610448565b5b6105a3565b6105868484846001610484565b9250905081840481111561059d5761059c610448565b5b81810290505b9392505050565b60006105b582610244565b91506105c083610244565b92506105ed7fffffffffffffffffffffffffffffffffffffffffffffffffffffffffffffffff84846104d7565b905092915050565b611c19806106046000396000f3fe60806040526004361061011f5760003560e01c80637e1c0c09116100a0578063c2930f9111610064578063c2930f911461040f578063c99a340f1461043a578063ce606ee014610465578063d0e30db014610490578063dd62ed3e1461049a5761011f565b80637e1c0c091461031657806395d89b41146103415780639dc29fac1461036c578063a9059cbb14610395578063ab1c8674146103d25761011f565b80632e1a7d4d116100e75780632e1a7d4d14610231578063313ce5671461025a57806340c10f191461028557806370a08231146102ae57806374ffdcd0146102eb5761011f565b806306fdde0314610124578063095ea7b31461014f57806318160ddd1461018c57806323b872dd146101b757806327e235e3146101f4575b600080fd5b34801561013057600080fd5b506101396104d7565b604051610146919061149c565b60405180910390f35b34801561015b57600080fd5b5061017660048036038101906101719190611557565b610565565b60405161018391906115b2565b60405180910390f35b34801561019857600080fd5b506101a1610657565b6040516101ae91906115dc565b60405180910390f35b3480156101c357600080fd5b506101de60048036038101906101d991906115f7565b610660565b6040516101eb91906115b2565b60405180910390f35b34801561020057600080fd5b5061021b6004803603810190610216919061164a565b6109ac565b60405161022891906115dc565b60405180910390f35b34801561023d57600080fd5b5061025860048036038101906102539190611677565b6109c4565b005b34801561026657600080fd5b5061026f610be0565b60405161027c91906116c0565b60405180910390f35b34801561029157600080fd5b506102ac60048036038101906102a79190611557565b610bf3565b005b3480156102ba57600080fd5b506102d560048036038101906102d0919061164a565b610d5b565b6040516102e291906115dc565b60405180910390f35b3480156102f757600080fd5b50610300610da4565b60405161030d91906115dc565b60405180910390f35b34801561032257600080fd5b5061032b610db0565b60405161033891906115dc565b60405180910390f35b34801561034d57600080fd5b50610356610db6565b604051610363919061149c565b60405180910390f35b34801561037857600080fd5b50610393600480360381019061038e9190611557565b610e44565b005b3480156103a157600080fd5b506103bc60048036038101906103b79190611557565b61102e565b6040516103c991906115b2565b60405180910390f35b3480156103de57600080fd5b506103f960048036038101906103f491906116db565b611221565b60405161040691906115dc565b60405180910390f35b34801561041b57600080fd5b50610424611246565b60405161043191906115dc565b60405180910390f35b34801561044657600080fd5b5061044f61124c565b60405161045c91906115dc565b60405180910390f35b34801561047157600080fd5b5061047a611254565b604051610487919061172a565b60405180910390f35b61049861127a565b005b3480156104a657600080fd5b506104c160048036038101906104bc91906116db565b611385565b6040516104ce91906115dc565b60405180910390f35b600480546104e490611774565b80601f016020809104026020016040519081016040528092919081815260200182805461051090611774565b801561055d5780601f106105325761010080835404028352916020019161055d565b820191906000526020600020905b81548152906001019060200180831161054057829003601f168201915b505050505081565b600081600360003373ffffffffffffffffffffffffffffffffffffffff1673ffffffffffffffffffffffffffffffffffffffff16815260200190815260200160002060008573ffffffffffffffffffffffffffffffffffffffff1673ffffffffffffffffffffffffffffffffffffffff168152602001908152602001600020819055508273ffffffffffffffffffffffffffffffffffffffff163373ffffffffffffffffffffffffffffffffffffffff167f8c5be1e5ebec7d5bd14f71427d1e84f3dd0314c0f7b2291e5b200ac8c7c3b9258460405161064591906115dc565b60405180910390a36001905092915050565b60008054905090565b60008382600260008373ffffffffffffffffffffffffffffffffffffffff1673ffffffffffffffffffffffffffffffffffffffff168152602001908152602001600020548111156106e6576040517f08c379a00000000000000000000000000000000000000000000000000000000081526004016106dd906117f1565b60405180910390fd5b853385600360008473ffffffffffffffffffffffffffffffffffffffff1673ffffffffffffffffffffffffffffffffffffffff16815260200190815260200160002060008373ffffffffffffffffffffffffffffffffffffffff1673ffffffffffffffffffffffffffffffffffffffff168152602001908152602001600020548111156107a8576040517f08c379a000000000000000000000000000000000000000000000000000000000815260040161079f9061185d565b60405180910390fd5b6000600654886107b891906118ac565b146107f8576040517f08c379a00000000000000000000000000000000000000000000000000000000081526004016107ef9061194f565b60405180910390fd5b86600260008b73ffffffffffffffffffffffffffffffffffffffff1673ffffffffffffffffffffffffffffffffffffffff1681526020019081526020016000206000828254610847919061199e565b9250508190555086600360008b73ffffffffffffffffffffffffffffffffffffffff1673ffffffffffffffffffffffffffffffffffffffff16815260200190815260200160002060003373ffffffffffffffffffffffffffffffffffffffff1673ffffffffffffffffffffffffffffffffffffffff16815260200190815260200160002060008282546108da919061199e565b9250508190555086600260008a73ffffffffffffffffffffffffffffffffffffffff1673ffffffffffffffffffffffffffffffffffffffff168152602001908152602001600020600082825461093091906119d2565b925050819055508773ffffffffffffffffffffffffffffffffffffffff168973ffffffffffffffffffffffffffffffffffffffff167fddf252ad1be2c89b69c2b068fc378daa952ba7f163c4a11628f55a4df523b3ef8960405161099491906115dc565b60405180910390a36001955050505050509392505050565b60026020528060005260406000206000915090505481565b3381600260008373ffffffffffffffffffffffffffffffffffffffff1673ffffffffffffffffffffffffffffffffffffffff16815260200190815260200160002054811115610a48576040517f08c379a0000000000000000000000000000000000000000000000000000000008152600401610a3f906117f1565b60405180910390fd5b6000600654633b9aca00610a5c9190611a06565b670de0b6b3a764000085610a709190611a06565b610a7a9190611a48565b905080471015610abf576040517f08c379a0000000000000000000000000000000000000000000000000000000008152600401610ab690611ac5565b60405180910390fd5b83600260003373ffffffffffffffffffffffffffffffffffffffff1673ffffffffffffffffffffffffffffffffffffffff1681526020019081526020016000206000828254610b0e919061199e565b9250508190555083600080828254610b26919061199e565b92505081905550600073ffffffffffffffffffffffffffffffffffffffff163373ffffffffffffffffffffffffffffffffffffffff167fddf252ad1be2c89b69c2b068fc378daa952ba7f163c4a11628f55a4df523b3ef86604051610b8b91906115dc565b60405180910390a33373ffffffffffffffffffffffffffffffffffffffff166108fc829081150290604051600060405180830381858888f19350505050158015610bd9573d6000803e3d6000fd5b5050505050565b600560009054906101000a900460ff1681565b600160009054906101000a900473ffffffffffffffffffffffffffffffffffffffff1673ffffffffffffffffffffffffffffffffffffffff163373ffffffffffffffffffffffffffffffffffffffff1614610c83576040517f08c379a0000000000000000000000000000000000000000000000000000000008152600401610c7a90611b57565b60405180910390fd5b80600080828254610c9491906119d2565b9250508190555080600260008473ffffffffffffffffffffffffffffffffffffffff1673ffffffffffffffffffffffffffffffffffffffff1681526020019081526020016000206000828254610cea91906119d2565b925050819055508173ffffffffffffffffffffffffffffffffffffffff16600073ffffffffffffffffffffffffffffffffffffffff167fddf252ad1be2c89b69c2b068fc378daa952ba7f163c4a11628f55a4df523b3ef83604051610d4f91906115dc565b60405180910390a35050565b6000600260008373ffffffffffffffffffffffffffffffffffffffff1673ffffffffffffffffffffffffffffffffffffffff168152602001908152602001600020549050919050565b670de0b6b3a764000081565b60005481565b60078054610dc390611774565b80601f0160208091040260200160405190810160405280929190818152602001828054610def90611774565b8015610e3c5780601f10610e1157610100808354040283529160200191610e3c565b820191906000526020600020905b815481529060010190602001808311610e1f57829003601f168201915b505050505081565b600160009054906101000a900473ffffffffffffffffffffffffffffffffffffffff1673ffffffffffffffffffffffffffffffffffffffff163373ffffffffffffffffffffffffffffffffffffffff1614610ed4576040517f08c379a0000000000000000000000000000000000000000000000000000000008152600401610ecb90611b57565b60405180910390fd5b80600260008473ffffffffffffffffffffffffffffffffffffffff1673ffffffffffffffffffffffffffffffffffffffff168152602001908152602001600020541015610f56576040517f08c379a0000000000000000000000000000000000000000000000000000000008152600401610f4d90611bc3565b60405180910390fd5b80600260008473ffffffffffffffffffffffffffffffffffffffff1673ffffffffffffffffffffffffffffffffffffffff1681526020019081526020016000206000828254610fa5919061199e565b9250508190555080600080828254610fbd919061199e565b92505081905550600073ffffffffffffffffffffffffffffffffffffffff168273ffffffffffffffffffffffffffffffffffffffff167fddf252ad1be2c89b69c2b068fc378daa952ba7f163c4a11628f55a4df523b3ef8360405161102291906115dc565b60405180910390a35050565b60003382600260008373ffffffffffffffffffffffffffffffffffffffff1673ffffffffffffffffffffffffffffffffffffffff168152602001908152602001600020548111156110b4576040517f08c379a00000000000000000000000000000000000000000000000000000000081526004016110ab906117f1565b60405180910390fd5b6000600654856110c491906118ac565b14611104576040517f08c379a00000000000000000000000000000000000000000000000000000000081526004016110fb9061194f565b60405180910390fd5b83600260003373ffffffffffffffffffffffffffffffffffffffff1673ffffffffffffffffffffffffffffffffffffffff1681526020019081526020016000206000828254611153919061199e565b9250508190555083600260008773ffffffffffffffffffffffffffffffffffffffff1673ffffffffffffffffffffffffffffffffffffffff16815260200190815260200160002060008282546111a991906119d2565b925050819055508473ffffffffffffffffffffffffffffffffffffffff163373ffffffffffffffffffffffffffffffffffffffff167fddf252ad1be2c89b69c2b068fc378daa952ba7f163c4a11628f55a4df523b3ef8660405161120d91906115dc565b60405180910390a360019250505092915050565b6003602052816000526040600020602052806000526040600020600091509150505481565b60065481565b633b9aca0081565b600160009054906101000a900473ffffffffffffffffffffffffffffffffffffffff1681565b6000670de0b6b3a7640000600654633b9aca00346112989190611a06565b6112a29190611a06565b6112ac9190611a48565b9050806000808282546112bf91906119d2565b9250508190555080600260003373ffffffffffffffffffffffffffffffffffffffff1673ffffffffffffffffffffffffffffffffffffffff168152602001908152602001600020600082825461131591906119d2565b925050819055503373ffffffffffffffffffffffffffffffffffffffff16600073ffffffffffffffffffffffffffffffffffffffff167fddf252ad1be2c89b69c2b068fc378daa952ba7f163c4a11628f55a4df523b3ef8360405161137a91906115dc565b60405180910390a350565b6000600360008473ffffffffffffffffffffffffffffffffffffffff1673ffffffffffffffffffffffffffffffffffffffff16815260200190815260200160002060008373ffffffffffffffffffffffffffffffffffffffff1673ffffffffffffffffffffffffffffffffffffffff16815260200190815260200160002054905092915050565b600081519050919050565b600082825260208201905092915050565b60005b8381101561144657808201518184015260208101905061142b565b60008484015250505050565b6000601f19601f8301169050919050565b600061146e8261140c565b6114788185611417565b9350611488818560208601611428565b61149181611452565b840191505092915050565b600060208201905081810360008301526114b68184611463565b905092915050565b600080fd5b600073ffffffffffffffffffffffffffffffffffffffff82169050919050565b60006114ee826114c3565b9050919050565b6114fe816114e3565b811461150957600080fd5b50565b60008135905061151b816114f5565b92915050565b6000819050919050565b61153481611521565b811461153f57600080fd5b50565b6000813590506115518161152b565b92915050565b6000806040838503121561156e5761156d6114be565b5b600061157c8582860161150c565b925050602061158d85828601611542565b9150509250929050565b60008115159050919050565b6115ac81611597565b82525050565b60006020820190506115c760008301846115a3565b92915050565b6115d681611521565b82525050565b60006020820190506115f160008301846115cd565b92915050565b6000806000606084860312156116105761160f6114be565b5b600061161e8682870161150c565b935050602061162f8682870161150c565b925050604061164086828701611542565b9150509250925092565b6000602082840312156116605761165f6114be565b5b600061166e8482850161150c565b91505092915050565b60006020828403121561168d5761168c6114be565b5b600061169b84828501611542565b91505092915050565b600060ff82169050919050565b6116ba816116a4565b82525050565b60006020820190506116d560008301846116b1565b92915050565b600080604083850312156116f2576116f16114be565b5b60006117008582860161150c565b92505060206117118582860161150c565b9150509250929050565b611724816114e3565b82525050565b600060208201905061173f600083018461171b565b92915050565b7f4e487b7100000000000000000000000000000000000000000000000000000000600052602260045260246000fd5b6000600282049050600182168061178c57607f821691505b60208210810361179f5761179e611745565b5b50919050565b7f496e73756666696369656e742066756e64732100000000000000000000000000600082015250565b60006117db601383611417565b91506117e6826117a5565b602082019050919050565b6000602082019050818103600083015261180a816117ce565b9050919050565b7f496e73756666696369656e7420616c6c6f77616e636521000000000000000000600082015250565b6000611847601783611417565b915061185282611811565b602082019050919050565b600060208201905081810360008301526118768161183a565b9050919050565b7f4e487b7100000000000000000000000000000000000000000000000000000000600052601260045260246000fd5b60006118b782611521565b91506118c283611521565b9250826118d2576118d161187d565b5b828206905092915050565b7f546f6b656e73206d75737420626520696e2077686f6c6520756e697473206f6660008201527f2062617365556e69740000000000000000000000000000000000000000000000602082015250565b6000611939602983611417565b9150611944826118dd565b604082019050919050565b600060208201905081810360008301526119688161192c565b9050919050565b7f4e487b7100000000000000000000000000000000000000000000000000000000600052601160045260246000fd5b60006119a982611521565b91506119b483611521565b92508282039050818111156119cc576119cb61196f565b5b92915050565b60006119dd82611521565b91506119e883611521565b9250828201905080821115611a00576119ff61196f565b5b92915050565b6000611a1182611521565b9150611a1c83611521565b9250828202611a2a81611521565b91508282048414831517611a4157611a4061196f565b5b5092915050565b6000611a5382611521565b9150611a5e83611521565b925082611a6e57611a6d61187d565b5b828204905092915050565b7f496e73756666696369656e7420636f6e74726163742062616c616e6365000000600082015250565b6000611aaf601d83611417565b9150611aba82611a79565b602082019050919050565b60006020820190508181036000830152611ade81611aa2565b9050919050565b7f4f6e6c7920746865206f776e65722063616e2063616c6c20746869732066756e60008201527f6374696f6e000000000000000000000000000000000000000000000000000000602082015250565b6000611b41602583611417565b9150611b4c82611ae5565b604082019050919050565b60006020820190508181036000830152611b7081611b34565b9050919050565b7f496e73756666696369656e742062616c616e6365000000000000000000000000600082015250565b6000611bad601483611417565b9150611bb882611b77565b602082019050919050565b60006020820190508181036000830152611bdc81611ba0565b905091905056fea2646970667358221220de1bdc265404160b6c2f27a0e8d486792a9a1546ee6b1fcc94a898c1c8118d4d64736f6c634300081c0033",
  "linkReferences": {},
  "deployedLinkReferences": {}
}