{
  "_format": "hh-sol-artifact-1",
  "contractName": "AuctionFactory",
  "sourceName": "contracts/AuctionFactory.sol",
  "abi": [
    {
      "inputs": [],
      "stateMutability": "nonpayable",
      "type": "constructor"
    },
    {
      "anonymous": false,
      "inputs": [
        {
          "indexed": false,
          "internalType": "address",
          "name": "auctionAddress",
          "type": "address"
        },
        {
          "indexed": false,
          "internalType": "string",
          "name": "itemName",
          "type": "string"
        },
        {
          "indexed": false,
          "internalType": "string",
          "name": "itemDescription",
          "type": "string"
        },
        {
          "indexed": false,
          "internalType": "uint256",
          "name": "biddingTime",
          "type": "uint256"
        },
        {
          "indexed": false,
          "internalType": "address",
          "name": "auctionOwner",
          "type": "address"
        }
      ],
      "name": "AuctionCreated",
      "type": "event"
    },
    {
      "inputs": [
        {
          "internalType": "uint256",
          "name": "",
          "type": "uint256"
        }
      ],
      "name": "auctions",
      "outputs": [
        {
          "internalType": "address",
          "name": "",
          "type": "address"
        }
      ],
      "stateMutability": "view",
      "type": "function"
    },
    {
      "inputs": [
        {
          "internalType": "uint256",
          "name": "biddingTime",
          "type": "uint256"
        },
        {
          "internalType": "address",
          "name": "tokenContract",
          "type": "address"
        },
        {
          "internalType": "string",
          "name": "itemName",
          "type": "string"
        },
        {
          "internalType": "string",
          "name": "itemDescription",
          "type": "string"
        }
      ],
      "name": "createAuction",
      "outputs": [],
      "stateMutability": "nonpayable",
      "type": "function"
    },
    {
      "inputs": [],
      "name": "getAllAuctions",
      "outputs": [
        {
          "internalType": "address[]",
          "name": "",
          "type": "address[]"
        }
      ],
      "stateMutability": "view",
      "type": "function"
    }
  ],
  "bytecode": "0x6080604052348015600f57600080fd5b5061217a8061001f6000396000f3fe608060405234801561001057600080fd5b50600436106100415760003560e01c8063571a26a0146100465780638d39d25d14610076578063cbd2bdfd14610092575b600080fd5b610060600480360381019061005b91906102bd565b6100b0565b60405161006d919061032b565b60405180910390f35b610090600480360381019061008b91906104b8565b6100ef565b005b61009a6101d8565b6040516100a79190610615565b60405180910390f35b600081815481106100c057600080fd5b906000526020600020016000915054906101000a900473ffffffffffffffffffffffffffffffffffffffff1681565b6000848484843360405161010290610266565b6101109594939291906106c5565b604051809103906000f08015801561012c573d6000803e3d6000fd5b5090506000819080600181540180825580915050600190039060005260206000200160009091909190916101000a81548173ffffffffffffffffffffffffffffffffffffffff021916908373ffffffffffffffffffffffffffffffffffffffff1602179055507fb86e640b084360c139bdd6f9573f16c1b9f54512846978659f9f70a22e565b5281848488336040516101c9959493929190610726565b60405180910390a15050505050565b6060600080548060200260200160405190810160405280929190818152602001828054801561025c57602002820191906000526020600020905b8160009054906101000a900473ffffffffffffffffffffffffffffffffffffffff1673ffffffffffffffffffffffffffffffffffffffff1681526020019060010190808311610212575b5050505050905090565b6119bd8061078883390190565b6000604051905090565b600080fd5b600080fd5b6000819050919050565b61029a81610287565b81146102a557600080fd5b50565b6000813590506102b781610291565b92915050565b6000602082840312156102d3576102d261027d565b5b60006102e1848285016102a8565b91505092915050565b600073ffffffffffffffffffffffffffffffffffffffff82169050919050565b6000610315826102ea565b9050919050565b6103258161030a565b82525050565b6000602082019050610340600083018461031c565b92915050565b61034f8161030a565b811461035a57600080fd5b50565b60008135905061036c81610346565b92915050565b600080fd5b600080fd5b6000601f19601f8301169050919050565b7f4e487b7100000000000000000000000000000000000000000000000000000000600052604160045260246000fd5b6103c58261037c565b810181811067ffffffffffffffff821117156103e4576103e361038d565b5b80604052505050565b60006103f7610273565b905061040382826103bc565b919050565b600067ffffffffffffffff8211156104235761042261038d565b5b61042c8261037c565b9050602081019050919050565b82818337600083830152505050565b600061045b61045684610408565b6103ed565b90508281526020810184848401111561047757610476610377565b5b610482848285610439565b509392505050565b600082601f83011261049f5761049e610372565b5b81356104af848260208601610448565b91505092915050565b600080600080608085870312156104d2576104d161027d565b5b60006104e0878288016102a8565b94505060206104f18782880161035d565b935050604085013567ffffffffffffffff81111561051257610511610282565b5b61051e8782880161048a565b925050606085013567ffffffffffffffff81111561053f5761053e610282565b5b61054b8782880161048a565b91505092959194509250565b600081519050919050565b600082825260208201905092915050565b6000819050602082019050919050565b61058c8161030a565b82525050565b600061059e8383610583565b60208301905092915050565b6000602082019050919050565b60006105c282610557565b6105cc8185610562565b93506105d783610573565b8060005b838110156106085781516105ef8882610592565b97506105fa836105aa565b9250506001810190506105db565b5085935050505092915050565b6000602082019050818103600083015261062f81846105b7565b905092915050565b61064081610287565b82525050565b600081519050919050565b600082825260208201905092915050565b60005b83811015610680578082015181840152602081019050610665565b60008484015250505050565b600061069782610646565b6106a18185610651565b93506106b1818560208601610662565b6106ba8161037c565b840191505092915050565b600060a0820190506106da6000830188610637565b6106e7602083018761031c565b81810360408301526106f9818661068c565b9050818103606083015261070d818561068c565b905061071c608083018461031c565b9695505050505050565b600060a08201905061073b600083018861031c565b818103602083015261074d818761068c565b90508181036040830152610761818661068c565b90506107706060830185610637565b61077d608083018461031c565b969550505050505056fe608060405234801561001057600080fd5b506040516119bd3803806119bd833981810160405281019061003291906102f8565b806000806101000a81548173ffffffffffffffffffffffffffffffffffffffff021916908373ffffffffffffffffffffffffffffffffffffffff160217905550844261007e91906103da565b60028190555082600590816100939190610625565b5081600690816100a39190610625565b5083600160006101000a81548173ffffffffffffffffffffffffffffffffffffffff021916908373ffffffffffffffffffffffffffffffffffffffff16021790555050505050506106f7565b6000604051905090565b600080fd5b600080fd5b6000819050919050565b61011681610103565b811461012157600080fd5b50565b6000815190506101338161010d565b92915050565b600073ffffffffffffffffffffffffffffffffffffffff82169050919050565b600061016482610139565b9050919050565b61017481610159565b811461017f57600080fd5b50565b6000815190506101918161016b565b92915050565b600080fd5b600080fd5b6000601f19601f8301169050919050565b7f4e487b7100000000000000000000000000000000000000000000000000000000600052604160045260246000fd5b6101ea826101a1565b810181811067ffffffffffffffff82111715610209576102086101b2565b5b80604052505050565b600061021c6100ef565b905061022882826101e1565b919050565b600067ffffffffffffffff821115610248576102476101b2565b5b610251826101a1565b9050602081019050919050565b60005b8381101561027c578082015181840152602081019050610261565b60008484015250505050565b600061029b6102968461022d565b610212565b9050828152602081018484840111156102b7576102b661019c565b5b6102c284828561025e565b509392505050565b600082601f8301126102df576102de610197565b5b81516102ef848260208601610288565b91505092915050565b600080600080600060a08688031215610314576103136100f9565b5b600061032288828901610124565b955050602061033388828901610182565b945050604086015167ffffffffffffffff811115610354576103536100fe565b5b610360888289016102ca565b935050606086015167ffffffffffffffff811115610381576103806100fe565b5b61038d888289016102ca565b925050608061039e88828901610182565b9150509295509295909350565b7f4e487b7100000000000000000000000000000000000000000000000000000000600052601160045260246000fd5b60006103e582610103565b91506103f083610103565b9250828201905080821115610408576104076103ab565b5b92915050565b600081519050919050565b7f4e487b7100000000000000000000000000000000000000000000000000000000600052602260045260246000fd5b6000600282049050600182168061046057607f821691505b60208210810361047357610472610419565b5b50919050565b60008190508160005260206000209050919050565b60006020601f8301049050919050565b600082821b905092915050565b6000600883026104db7fffffffffffffffffffffffffffffffffffffffffffffffffffffffffffffffff8261049e565b6104e5868361049e565b95508019841693508086168417925050509392505050565b6000819050919050565b600061052261051d61051884610103565b6104fd565b610103565b9050919050565b6000819050919050565b61053c83610507565b61055061054882610529565b8484546104ab565b825550505050565b600090565b610565610558565b610570818484610533565b505050565b5b818110156105945761058960008261055d565b600181019050610576565b5050565b601f8211156105d9576105aa81610479565b6105b38461048e565b810160208510156105c2578190505b6105d66105ce8561048e565b830182610575565b50505b505050565b600082821c905092915050565b60006105fc600019846008026105de565b1980831691505092915050565b600061061583836105eb565b9150826002028217905092915050565b61062e8261040e565b67ffffffffffffffff811115610647576106466101b2565b5b6106518254610448565b61065c828285610598565b600060209050601f83116001811461068f576000841561067d578287015190505b6106878582610609565b8655506106ef565b601f19841661069d86610479565b60005b828110156106c5578489015182556001820191506020850194506020810190506106a0565b868310156106e257848901516106de601f8916826105eb565b8355505b6001600288020188555050505b505050505050565b6112b7806107066000396000f3fe608060405234801561001057600080fd5b50600436106100b45760003560e01c806355a373d61161007157806355a373d6146101695780638da5cb5b1461018757806391f90157146101a55780639f365226146101c3578063d57bde79146101e1578063fe67a54b146101ff576100b4565b806312fa6feb146100b957806326b387bb146100d75780633ccfd60b1461010757806340401fea14610111578063454a2ab31461012f5780634b449cba1461014b575b600080fd5b6100c1610209565b6040516100ce9190610aa5565b60405180910390f35b6100f160048036038101906100ec9190610b23565b61021c565b6040516100fe9190610b69565b60405180910390f35b61010f610234565b005b6101196103e2565b6040516101269190610c14565b60405180910390f35b61014960048036038101906101449190610c62565b610470565b005b6101536106e2565b6040516101609190610b69565b60405180910390f35b6101716106e8565b60405161017e9190610cee565b60405180910390f35b61018f61070e565b60405161019c9190610d18565b60405180910390f35b6101ad610732565b6040516101ba9190610d18565b60405180910390f35b6101cb610758565b6040516101d89190610c14565b60405180910390f35b6101e96107e6565b6040516101f69190610b69565b60405180910390f35b6102076107ec565b005b600860009054906101000a900460ff1681565b60076020528060005260406000206000915090505481565b6000600760003373ffffffffffffffffffffffffffffffffffffffff1673ffffffffffffffffffffffffffffffffffffffff168152602001908152602001600020549050600081116102bb576040517f08c379a00000000000000000000000000000000000000000000000000000000081526004016102b290610d7f565b60405180910390fd5b6000600760003373ffffffffffffffffffffffffffffffffffffffff1673ffffffffffffffffffffffffffffffffffffffff16815260200190815260200160002081905550600160009054906101000a900473ffffffffffffffffffffffffffffffffffffffff1673ffffffffffffffffffffffffffffffffffffffff1663a9059cbb33836040518363ffffffff1660e01b815260040161035d929190610d9f565b6020604051808303816000875af115801561037c573d6000803e3d6000fd5b505050506040513d601f19601f820116820180604052508101906103a09190610df4565b6103df576040517f08c379a00000000000000000000000000000000000000000000000000000000081526004016103d690610e6d565b60405180910390fd5b50565b600580546103ef90610ebc565b80601f016020809104026020016040519081016040528092919081815260200182805461041b90610ebc565b80156104685780601f1061043d57610100808354040283529160200191610468565b820191906000526020600020905b81548152906001019060200180831161044b57829003601f168201915b505050505081565b60025442106104b4576040517f08c379a00000000000000000000000000000000000000000000000000000000081526004016104ab90610f39565b60405180910390fd5b60045481116104f8576040517f08c379a00000000000000000000000000000000000000000000000000000000081526004016104ef90610fcb565b60405180910390fd5b600160009054906101000a900473ffffffffffffffffffffffffffffffffffffffff1673ffffffffffffffffffffffffffffffffffffffff166323b872dd3330846040518463ffffffff1660e01b815260040161055793929190610feb565b6020604051808303816000875af1158015610576573d6000803e3d6000fd5b505050506040513d601f19601f8201168201806040525081019061059a9190610df4565b6105d9576040517f08c379a00000000000000000000000000000000000000000000000000000000081526004016105d090610e6d565b60405180910390fd5b60006004541461065e5760045460076000600360009054906101000a900473ffffffffffffffffffffffffffffffffffffffff1673ffffffffffffffffffffffffffffffffffffffff1673ffffffffffffffffffffffffffffffffffffffff16815260200190815260200160002060008282546106569190611051565b925050819055505b33600360006101000a81548173ffffffffffffffffffffffffffffffffffffffff021916908373ffffffffffffffffffffffffffffffffffffffff160217905550806004819055507ff4757a49b326036464bec6fe419a4ae38c8a02ce3e68bf0809674f6aab8ad30033826040516106d7929190610d9f565b60405180910390a150565b60025481565b600160009054906101000a900473ffffffffffffffffffffffffffffffffffffffff1681565b60008054906101000a900473ffffffffffffffffffffffffffffffffffffffff1681565b600360009054906101000a900473ffffffffffffffffffffffffffffffffffffffff1681565b6006805461076590610ebc565b80601f016020809104026020016040519081016040528092919081815260200182805461079190610ebc565b80156107de5780601f106107b3576101008083540402835291602001916107de565b820191906000526020600020905b8154815290600101906020018083116107c157829003601f168201915b505050505081565b60045481565b600254421015610831576040517f08c379a0000000000000000000000000000000000000000000000000000000008152600401610828906110d1565b60405180910390fd5b60008054906101000a900473ffffffffffffffffffffffffffffffffffffffff1673ffffffffffffffffffffffffffffffffffffffff163373ffffffffffffffffffffffffffffffffffffffff16146108bf576040517f08c379a00000000000000000000000000000000000000000000000000000000081526004016108b690611163565b60405180910390fd5b600860009054906101000a900460ff161561090f576040517f08c379a0000000000000000000000000000000000000000000000000000000008152600401610906906111f5565b60405180910390fd5b6001600860006101000a81548160ff0219169083151502179055507fdaec4582d5d9595688c8c98545fdd1c696d41c6aeaeb636737e84ed2f5c00eda600360009054906101000a900473ffffffffffffffffffffffffffffffffffffffff1660045460405161097f929190610d9f565b60405180910390a1600160009054906101000a900473ffffffffffffffffffffffffffffffffffffffff1673ffffffffffffffffffffffffffffffffffffffff1663a9059cbb60008054906101000a900473ffffffffffffffffffffffffffffffffffffffff166004546040518363ffffffff1660e01b8152600401610a06929190610d9f565b6020604051808303816000875af1158015610a25573d6000803e3d6000fd5b505050506040513d601f19601f82011682018060405250810190610a499190610df4565b610a88576040517f08c379a0000000000000000000000000000000000000000000000000000000008152600401610a7f90611261565b60405180910390fd5b565b60008115159050919050565b610a9f81610a8a565b82525050565b6000602082019050610aba6000830184610a96565b92915050565b600080fd5b600073ffffffffffffffffffffffffffffffffffffffff82169050919050565b6000610af082610ac5565b9050919050565b610b0081610ae5565b8114610b0b57600080fd5b50565b600081359050610b1d81610af7565b92915050565b600060208284031215610b3957610b38610ac0565b5b6000610b4784828501610b0e565b91505092915050565b6000819050919050565b610b6381610b50565b82525050565b6000602082019050610b7e6000830184610b5a565b92915050565b600081519050919050565b600082825260208201905092915050565b60005b83811015610bbe578082015181840152602081019050610ba3565b60008484015250505050565b6000601f19601f8301169050919050565b6000610be682610b84565b610bf08185610b8f565b9350610c00818560208601610ba0565b610c0981610bca565b840191505092915050565b60006020820190508181036000830152610c2e8184610bdb565b905092915050565b610c3f81610b50565b8114610c4a57600080fd5b50565b600081359050610c5c81610c36565b92915050565b600060208284031215610c7857610c77610ac0565b5b6000610c8684828501610c4d565b91505092915050565b6000819050919050565b6000610cb4610caf610caa84610ac5565b610c8f565b610ac5565b9050919050565b6000610cc682610c99565b9050919050565b6000610cd882610cbb565b9050919050565b610ce881610ccd565b82525050565b6000602082019050610d036000830184610cdf565b92915050565b610d1281610ae5565b82525050565b6000602082019050610d2d6000830184610d09565b92915050565b7f4e6f2070656e64696e672072657475726e730000000000000000000000000000600082015250565b6000610d69601283610b8f565b9150610d7482610d33565b602082019050919050565b60006020820190508181036000830152610d9881610d5c565b9050919050565b6000604082019050610db46000830185610d09565b610dc16020830184610b5a565b9392505050565b610dd181610a8a565b8114610ddc57600080fd5b50565b600081519050610dee81610dc8565b92915050565b600060208284031215610e0a57610e09610ac0565b5b6000610e1884828501610ddf565b91505092915050565b7f546f6b656e207472616e73666572206661696c65640000000000000000000000600082015250565b6000610e57601583610b8f565b9150610e6282610e21565b602082019050919050565b60006020820190508181036000830152610e8681610e4a565b9050919050565b7f4e487b7100000000000000000000000000000000000000000000000000000000600052602260045260246000fd5b60006002820490506001821680610ed457607f821691505b602082108103610ee757610ee6610e8d565b5b50919050565b7f5468652061756374696f6e2068617320616c726561647920656e646564000000600082015250565b6000610f23601d83610b8f565b9150610f2e82610eed565b602082019050919050565b60006020820190508181036000830152610f5281610f16565b9050919050565b7f546865726520616c7265616479206973206120686967686572206f722065717560008201527f616c206269640000000000000000000000000000000000000000000000000000602082015250565b6000610fb5602683610b8f565b9150610fc082610f59565b604082019050919050565b60006020820190508181036000830152610fe481610fa8565b9050919050565b60006060820190506110006000830186610d09565b61100d6020830185610d09565b61101a6040830184610b5a565b949350505050565b7f4e487b7100000000000000000000000000000000000000000000000000000000600052601160045260246000fd5b600061105c82610b50565b915061106783610b50565b925082820190508082111561107f5761107e611022565b5b92915050565b7f5468652061756374696f6e206973207374696c6c206163746976650000000000600082015250565b60006110bb601b83610b8f565b91506110c682611085565b602082019050919050565b600060208201905081810360008301526110ea816110ae565b9050919050565b7f4f6e6c7920746865206f776e65722063616e2063616c6c20746869732066756e60008201527f6374696f6e000000000000000000000000000000000000000000000000000000602082015250565b600061114d602583610b8f565b9150611158826110f1565b604082019050919050565b6000602082019050818103600083015261117c81611140565b9050919050565b7f5468652061756374696f6e2068617320616c7265616479206265656e20656e6460008201527f6564000000000000000000000000000000000000000000000000000000000000602082015250565b60006111df602283610b8f565b91506111ea82611183565b604082019050919050565b6000602082019050818103600083015261120e816111d2565b9050919050565b7f546f6b656e207472616e7366657220746f206f776e6572206661696c65640000600082015250565b600061124b601e83610b8f565b915061125682611215565b602082019050919050565b6000602082019050818103600083015261127a8161123e565b905091905056fea26469706673582212201f40959518a2652da15431d4b63880fa446b7b611f0d95c0fa4a89a7ca5d805f64736f6c634300081c0033a26469706673582212204241c1b2b2adb28c3bc3105086f2b84e955e8e274d77680d22fab8f9fbdcbee764736f6c634300081c0033",
  "linkReferences": {},
  "deployedLinkReferences": {}
}